:1000000089C00000D0C00000CEC00000CCC00000FD
:10001000CAC00000C8C00000C6C00000C4C00000C4
:10002000C2C00000C0C00000BEC000008DC40000FF
:10003000BAC00000B8C00000B6C00000B4C00000E4
:10004000B2C00000B0C00000B8C00000ACC00000EA
:10005000AAC00000A8C00000A6C00000A4C0000004
:10006000A2C00000A0C000009EC000009CC0000014
:100070009AC000001F064106290741062907860687
:10008000A9062907FB060D071C034C005500460076
:10009000410020004300440043002000440065006C
:1000A0006D006F00000018034400650061006E00E1
:1000B0002000430061006D006500720061000000D7
:1000C0000403090409023E00020100C032090400D1
:1000D00000010202010005240010010424020605AB
:1000E00024060001070582030800FF09040100023D
:1000F0000A00000007050402100001070583021032
:10010000000112011001020000084F1B070001004E
:100110000102DC0111241FBECFEFD2E0DEBFCDBF54
:1001200004B603FE2AC08091AE019091AF01A09168
:10013000B001B091B10185359A4AA545BA4AE9F4B2
:100140008FEF93EDE0E381509040E040E1F700C095
:100150000000FFEF23ED80E3F15020408040E1F705
:1001600000C000001092AE011092AF011092B001D9
:100170001092B101E0E0F0E7099511E0A0E0B1E0F4
:10018000EEECF3E102C005900D92A432B107D9F76D
:1001900021E0A4E2B1E001C01D92AE3AB207E1F75E
:1001A00058D00C94E5092CCF9BB1892B8BB90895BD
:1001B0009BB1809598239BB908951F920F920FB61B
:1001C0000F9211248F939F938EEE95E89093850064
:1001D000809384009F918F910F900FBE0F901F907E
:1001E000189584B7877F84BF0FB6F894A89580913F
:1001F0006000886180936000109260000FBE90E004
:1002000080E80FB6F89480936100909361000FBE70
:1002100080E090E0FC01EF56FE4F108201968031A5
:100220009105C1F782D38AB18B638AB98BB18B6395
:100230008BB9269881E080936F00109280008EEE3B
:1002400095E8909385008093840084E080938100FA
:100250000895CF93DF93CDB7DEB7DA950FB6F89454
:10026000DEBF0FBECDBFBDDF63E871E08CE091E083
:1002700013D7789480E19CDF80E29ADF00E010E001
:1002800023E4222E312C5E0186E8A80EB11C23E85F
:1002900031E040E150E061E070E081E991E0C1D7F8
:1002A0003C01892B09F4BCC1512CE52DF0E0E61589
:1002B000F70508F0B5C1EF56FE4F0115110549F4D9
:1002C0008081803309F0A8C18081898301E010E03A
:1002D000A3C10130110579F48081823039F0808129
:1002E000882321F08081813009F094C180818A8344
:1002F00002E010E091C1C80101962081E1E0F0E048
:10030000EC0FFD1FE00FF11F20838538910509F0E8
:1003100084C12A81223009F084C081E045DF88E071
:1003200047DFA2E0AA95F1F700C088E03DDF81E059
:100330003FDFB2E0BA95F1F700C087E0FE013F96DB
:10034000ABE3B1E001900D928A95E1F718E082E00D
:100350002FDFE5E3EA95F1F7000081E025DFF5E323
:10036000FA95F1F7000081E023DF115081F77E015B
:1003700086E1E80EF11CD701CD907D0107E010E089
:10038000D12CC601002E02C0959587950A94E2F7FC
:1003900080FF03C082E008DF02C082E009DFB5E32E
:1003A000BA95F1F7000081E0FFDEE5E3EA95F1F7A9
:1003B000000081E0FDDE0150110918F7EA14FB048A
:1003C000D1F67E0183E0E80EF11C4E01ADE08A0E0D
:1003D000911CF701C1907F0107E010E0D12CC6010C
:1003E000002E02C0959587950A94E2F780FF03C01E
:1003F00082E0DADE02C082E0DBDEF5E3FA95F1F7B7
:10040000000081E0D1DE85E38A95F1F7000081E00C
:10041000CFDE0150110918F7E814F904D1F682E093
:10042000D6C02111DDC081E0BFDE88E0C1DEB2E0D0
:10043000BA95F1F700C088E0B7DE81E0B9DEE2E00E
:10044000EA95F1F700C007E010E081E090E0002EAF
:1004500002C0959587950A94E2F7892B19F082E0FE
:10046000A3DE02C082E0A4DEF5E3FA95F1F7000016
:1004700081E09ADE85E38A95F1F7000081E098DE5D
:100480000150110910F70DE610E098E0F92E82E016
:100490008FDEB5E3BA95F1F7000081E085DEE5E394
:1004A000EA95F1F7000081E083DEFA94F110EFCFD6
:1004B0000150110951F707E010E088E090E0002EAC
:1004C00002C0959587950A94E2F780FF03C082E009
:1004D0006BDE02C082E06CDEF5E3FA95F1F7000016
:1004E00081E062DE85E38A95F1F7000081E060DE5D
:1004F0000150110910F707E010E0C101002E02C001
:10050000959587950A94E2F780FF03C082E04CDE60
:1005100002C082E04DDEB5E3BA95F1F7000081E05C
:1005200043DEE5E3EA95F1F7000081E041DE0150AA
:10053000110918F707E010E081E290E0002E02C0F8
:10054000959587950A94E2F780FF03C082E02CDE40
:1005500002C082E02DDE85E38A95F1F7000081E09C
:1005600023DEA5E3AA95F1F7000081E021DE01502A
:10057000110910F70AE010E088E0F82E82E018DE9A
:10058000E5E3EA95F1F7000081E00EDEF5E3FA9588
:10059000F1F7000081E00CDEFA94F110EFCF01508A
:1005A000110951F782E000DEE1968FADE1978C30C2
:1005B00041F078F08F3041F0843159F480E1F4DD7E
:1005C00005C080E1F1DD07C080E1F2DD80E2ECDD15
:1005D00004C080E1EDDD80E2EBDD80E090E01DC055
:1005E0002130D9F482E0E0DD85E59AEADC018093F0
:1005F000AE019093AF01A093B001B093B1019CE024
:1006000088E10FB6F894A895809360000FBE909390
:100610006000FFCF00E010E0C80153948C0145CE8C
:100620001E990BC0809100019091010180349105C9
:1006300021F410920101109200018091000190912B
:100640000101803491050CF062C023B1FC01EE5B26
:10065000FE4F26FB222720F920830196909301016B
:10066000809300018034910509F057C088E0E3E3EE
:10067000F1E0DF011D928A95E9F7A2E4B1E02FEFE6
:100680003FEFE22FE095E695E695E695F0E08D9157
:10069000ED5CFE4FA9014770552701C0880F4A95B0
:1006A000EAF79081892B8083215031092F3BEFEFAE
:1006B0003E0739F782E08093250180E3809324018F
:1006C00087E0EBE3F1E0A6E2B1E001900D928A95BC
:1006D000E1F710922D0110922E0180913701809345
:1006E0002F018091380180933001809139018093EE
:1006F000310180913A018093320123E831E04FE0EB
:1007000050E061E070E084E291E0B8D506C080E49A
:1007100090E09093010180930001F5E3FA95F1F7E1
:10072000000081E045DD85E38A95F1F7000081E076
:100730003BDD8CE091E06CD4A6D3A9CD089508955B
:100740008CE091E0B2C38CE091E0BAC4292F33274A
:100750002230310559F02330310569F0213031055F
:10076000F9F482E190E022E031E01EC08EE390E0F7
:1007700024EC30E019C099278130910541F0823096
:10078000910541F0892B61F4E0ECF0E005C0E6EA68
:10079000F0E002C0E8E8F0E0849190E09F0104C03E
:1007A00080E090E020E030E0FA013183208308957A
:1007B000982F953058F59093E900981739F070917B
:1007C000EC002091ED005091F00003C0242F762F13
:1007D00050E021FF19C03091EB003E7F3093EB00D9
:1007E0003091ED003D7F3093ED003091EB003160B2
:1007F0003093EB007093EC002093ED005093F000E9
:100800002091EE0027FF06C09F5FD3CF8093E900C1
:1008100081E0089580E008958091A60187FF11C0CE
:100820008091E80082FD05C08091A5018111F8CF7B
:1008300011C08091E8008B770BC08091A5018823BF
:1008400049F08091E80080FFF8CF8091E8008E7732
:100850008093E80008952091E4003091E50095E64A
:100860004091EC00842F817040FF22C08091E8000D
:1008700080FD1CC08091A501882391F0853091F006
:100880008091EB0085FD10C04091E4005091E5009F
:100890004217530729F39A01915011F784E0089504
:1008A00082E0089583E0089581E0089580E008954E
:1008B0004091E80042FFDECF089540D042D08091C1
:1008C000D8008F778093D8008091D800806880937B
:1008D000D8008091D8008F7D8093D80019BC82E029
:1008E00089BD09B400FEFDCF1092A5011092A101AF
:1008F0001092A3011092A20142E060E080E058DF74
:100900008091E1008E7F8093E1008091E200816020
:100910008093E2008091E20088608093E200809101
:10092000E0008E7F8093E0000895E3E6F0E08081B0
:100930008E7F808381E08093A401BFCF1092E2007C
:1009400008951092E10008951F920F920FB60F9232
:1009500011242F933F934F935F936F937F938F93C4
:100960009F93AF93BF93EF93FF938091E10082FF3A
:100970000AC08091E20082FF06C08091E1008B7F77
:100980008093E1007FD28091E10080FF17C08091C9
:10099000E20080FF13C08091E2008E7F8093E2002E
:1009A0008091E20080618093E2008091D8008062B3
:1009B0008093D80019BC1092A501C1DE8091E1009E
:1009C00084FF2CC08091E20084FF28C019BC82E023
:1009D00089BD09B400FEFDCF8091D8008F7D809342
:1009E000D8008091E1008F7E8093E1008091E20049
:1009F0008F7E8093E2008091E20081608093E2002C
:100A00008091A101811106C08091E30087FD02C0A1
:100A100081E001C084E08093A50190DE8091E10037
:100A200083FF22C08091E20083FF1EC08091E1001D
:100A3000877F8093E10082E08093A5011092A1015D
:100A40008091E1008E7F8093E1008091E2008E7FB3
:100A50008093E2008091E20080618093E20042E0B6
:100A600060E080E0A5DE0ED2FF91EF91BF91AF91E3
:100A70009F918F917F916F915F914F913F912F91B6
:100A80000F900FBE0F901F9018952091AC013091E0
:100A9000AD012617370748F06115710539F420912B
:100AA000E8002E772093E80001C0B90140E061150D
:100AB000710581F12091A5012223E9F12530E9F1A9
:100AC0002091E80023FD35C02091E80022FD2BC0D5
:100AD0002091E80020FFEBCF2091F20030E0FC01F4
:100AE000CF016115710559F02830310540F481912D
:100AF0008093F100615071092F5F3F4FF1CF41E0CA
:100B00002830310509F040E02091E8002E7720934D
:100B1000E800CDCF4111CECF06C08091A50188233A
:100B200051F0853051F08091E80082FFF6CF80E0EF
:100B3000089581E0089582E0089583E0089520916A
:100B4000AC013091AD012617370748F061157105EA
:100B500039F42091E8002E772093E80001C0B90114
:100B6000FC0120E06115710569F18091A5018823E0
:100B7000D1F18530D1F18091E80083FD32C08091C0
:100B8000E80082FD28C08091E80080FFEBCF8091D3
:100B9000F20090E06115710559F08830910540F43C
:100BA00024912093F1003196615071090196F2CFA2
:100BB00021E0089709F020E08091E8008E7780938B
:100BC000E800D0CF2111D1CF06C08091A5018823A4
:100BD00051F0853051F08091E80082FFF6CF80E03F
:100BE000089581E0089582E0089583E008950F93C9
:100BF0001F93CF93DF93CDB7DEB7AA970FB6F894C4
:100C0000DEBF0FBECDBFE6EAF1E088E08E0F909127
:100C1000F10091938E13FBCF96DD8091E80083FF66
:100C200018C18091A6019091A701492F50E04A3048
:100C3000510508F00EC1FA01E65CFF4FECC28038A6
:100C400081F0823809F005C18091AA018F708093EC
:100C5000E9008091EB0085FB882780F91092E9007C
:100C600006C08091A2019091A301911182609091A0
:100C7000E800977F9093E8008093F1001092F100D4
:100C8000C5C0282F2D7F09F0E4C0882319F08230D9
:100C900061F0DFC08091A801813009F0DAC09330A3
:100CA00009F080E08093A3012BC08091A8018111FD
:100CB00027C08091AA018F7009F4CBC08093E9000E
:100CC0002091EB0020FF1CC0933021F48091EB00B9
:100CD000806214C09091EB0090619093EB0021E052
:100CE00030E0A90102C0440F551F8A95E2F74093F6
:100CF000EA001092EA008091EB0088608093EB009C
:100D00001092E9008091E800877F83C08111A1C023
:100D10001091A8011F770FB7F8948091E800877FA2
:100D20008093E80079DD8091E80080FFFCCF80911E
:100D3000E3008078812B8093E30080688093E30058
:100D4000111102C082E001C083E08093A5010FBFB2
:100D500080C08058823008F07CC08091A8019091BA
:100D6000A9018C3D53E0950771F583E08A838AE2FF
:100D700089834FB7F894DE01139620E03EE051E2FC
:100D8000E32FF0E050935700E49120FF03C0E29579
:100D9000EF703F5FEF708E2F90E0EA3010F0C79653
:100DA00001C0C0968D939D932F5F243149F74FBFAB
:100DB0008091E800877F8093E8006AE270E0CE01CE
:100DC000019663DE12C0AE014F5F5F4F6091AA01D2
:100DD000BDDCBC01892B09F43CC09091E800977FF1
:100DE0009093E80089819A81AADE8091E8008B7750
:100DF0008093E8002EC0803861F58091E800877FFD
:100E00008093E8008091A1018093F1008091E80037
:100E10008E778093E80000DD1CC081111AC090918C
:100E2000A8019230B0F48091E800877F8093E800B9
:100E30009093A101F1DC8091A101811106C0809104
:100E4000E30087FD02C081E001C084E08093A5013A
:100E500077DC8091E80083FF0AC08091EB0080621C
:100E60008093EB008091E800877F8093E800AA964A
:100E70000FB6F894DEBF0FBECDBFDF91CF911F91AB
:100E80000F9108950895CF938091A501882359F07B
:100E9000C091E900CF701092E9008091E80083FDD5
:100EA000A6DEC093E900CF9108951F93CF93DF93FF
:100EB000EC01FC013D968BE0DF011D928A95E9F77C
:100EC00011E08981181305C02A813B818C8190E84B
:100ED00007C08D81181306C02E813F81888590E060
:100EE00062E00DC08985181729F01F5F153049F79A
:100EF00081E027C02A853B858C8590E863E08111DD
:100F000002C040E001C044E0E8E0F0E080E0E21729
:100F1000F30720F48F5FEE0FFF1FF9CF4260829539
:100F2000807F482B70E086E0660F771F8A95E1F797
:100F300081E0911101C080E0682B812F39DC8111A3
:100F4000D4CFDF91CF911F9108950F931F93CF932B
:100F50002091A5012430F1F4FC0101891289238933
:100F60003489012B022B032BA9F0C62F818180939A
:100F7000E9008091E80085FF04C0C093F10080E0A3
:100F80000AC08091E8008E778093E80064DC8823B3
:100F9000A1F301C082E0CF911F910F910895FB0151
:100FA000682F84859585D1DF21E030E0811102C072
:100FB00020E030E088279927821B930B0895209129
:100FC000A501243019F5FC0141895289638974898E
:100FD000452B462B472BD1F081818093E9008091EE
:100FE000F200882389F09091E8008091E8008E77E4
:100FF0008093E80095FD08C02EDC811108C0809127
:10100000E8008E778093E80080E0089582E00895FC
:101010002091A501243051F4FC0141895289638952
:101020007489452B462B472B09F0C9CF0895209191
:10103000A501243019F08FEF9FEF0895FC0141893D
:10104000528963897489452B462B472BA1F38581EF
:101050008093E9008091E80082FFEDCF8091F2005B
:10106000882321F02091F10030E002C02FEF3FEF04
:101070008091F200811105C08091E8008B77809308
:10108000E800C9010895FC0184859585D0DF97FFAC
:1010900002C08EEF9FEF0895FB012EE0DB011D9251
:1010A0002A95E9F723E023832FEC37E03187208767
:1010B00023E438E03387228795878487089508954D
:1010C000CF93DF93EC018091E80083FFA1C088817A
:1010D00090E02091AA013091AB012817390709F05F
:1010E00097C08091A701813261F020F4803209F429
:1010F0003EC08EC0823209F467C0833209F478C0E2
:1011000087C08091A601813A09F082C08091E800F1
:10111000877F8093E8008091E80080FFFCCF898979
:101120009A89AB89BC898093F100492F5A2F6B2F84
:1011300077274093F100AD01662777274093F100B0
:101140008B2F9927AA27BB278093F1008D89809345
:10115000F1008E898093F1008F898093F100809156
:10116000E8008E778093E800DF91CF9155CB809196
:10117000A601813209F04CC08091E800877F8093FE
:10118000E8008091E80082FFFCCF3091F1002091CF
:10119000F1009091F1008091F100398B2A8B9B8BAB
:1011A0008C8B8091F1008D8B8091F1008E8B8091E2
:1011B000F1008F8B8091E8008B778093E8002CDB27
:1011C000CE01DF91CF917BCF8091A601813201F5D5
:1011D0008091E800877F8093E8001EDB8091A80162
:1011E0009091A9019E878D87CE01DF91CF9167CF26
:1011F0008091A601813261F48091E800877F80931D
:10120000E8000ADB6091A801CE01DF91CF9157CFB2
:10121000DF91CF910895EE0FFF1F0590F491E02D1F
:101220000994A0E0B0E0E6E1F9E09EC05B014A016C
:101230007901F901238120FF19C0C0E0D0E0C81571
:10124000D905B9F08C016C01CA0CDB1CC8010C1566
:101250001D0551F0C70144D08F3FFFEF9F0749F0B4
:10126000F80181938F01F2CF2196E9CF80E090E0E1
:1012700001C0CE01CDB7DEB7ECE092C0A0E0B0E097
:10128000E3E4F9E071C05B014A017901D9011396E9
:101290002C9121FF1DC0C0E0D0E0C815D905D9F0C0
:1012A0008C016C01CA0CDB1CC8010C151D0571F00A
:1012B0000F5F1F4FD7011896ED91FC911997B70159
:1012C000DC018C910995892B79F305C02196E5CF36
:1012D00080E090E001C0CE01CDB7DEB7ECE060C0A9
:1012E000CF93DF93EC012B8120FF33C026FF0AC090
:1012F0002F7B2B838E819F8101969F838E838A8192
:1013000090E029C022FF0FC0E881F9818081082E7A
:10131000000C990B009719F420622B831AC03196A8
:10132000F983E8830EC0EA85FB85099597FF09C01C
:101330002B81019611F080E201C080E1822B8B832A
:1013400008C02E813F812F5F3F4F3F832E83992717
:1013500002C08FEF9FEFDF91CF9108952F923F92C0
:101360004F925F926F927F928F929F92AF92BF92B5
:10137000CF92DF92EF92FF920F931F93CF93DF9361
:10138000CDB7DEB7CA1BDB0B0FB6F894DEBF0FBEBE
:10139000CDBF09942A88398848885F846E847D840B
:1013A0008C849B84AA84B984C884DF80EE80FD800D
:1013B0000C811B81AA81B981CE0FD11D0FB6F89483
:0E13C000DEBF0FBECDBFED010895F894FFCF44
:1013CE004000400000004FFFFFFF00000003100030
:1013DE0000041000000208000000000000000000E1
:0413EE0000000000FB
:00000001FF
